{
  "contractName": "Commitment",
  "abi": [
    {
      "inputs": [],
      "payable": false,
      "stateMutability": "nonpayable",
      "type": "constructor"
    },
    {
      "anonymous": false,
      "inputs": [
        {
          "indexed": true,
          "name": "Address",
          "type": "address"
        },
        {
          "indexed": true,
          "name": "TrainerAddress",
          "type": "address"
        },
        {
          "indexed": false,
          "name": "Deposit",
          "type": "uint256"
        }
      ],
      "name": "Commitment",
      "type": "event"
    },
    {
      "anonymous": false,
      "inputs": [
        {
          "indexed": true,
          "name": "projectOwner",
          "type": "address"
        },
        {
          "indexed": false,
          "name": "weiAmount",
          "type": "uint256"
        }
      ],
      "name": "Deposited",
      "type": "event"
    },
    {
      "anonymous": false,
      "inputs": [
        {
          "indexed": true,
          "name": "projectOwner",
          "type": "address"
        },
        {
          "indexed": false,
          "name": "index",
          "type": "uint256"
        },
        {
          "indexed": false,
          "name": "record",
          "type": "uint256"
        }
      ],
      "name": "Recorded",
      "type": "event"
    },
    {
      "anonymous": false,
      "inputs": [
        {
          "indexed": true,
          "name": "projectOwner",
          "type": "address"
        },
        {
          "indexed": false,
          "name": "index",
          "type": "uint256"
        }
      ],
      "name": "Completed",
      "type": "event"
    },
    {
      "anonymous": false,
      "inputs": [
        {
          "indexed": true,
          "name": "projectOwner",
          "type": "address"
        },
        {
          "indexed": true,
          "name": "trainer",
          "type": "address"
        },
        {
          "indexed": false,
          "name": "weiAmount",
          "type": "uint256"
        }
      ],
      "name": "Withdrawn",
      "type": "event"
    },
    {
      "constant": false,
      "inputs": [
        {
          "name": "trainer",
          "type": "address"
        }
      ],
      "name": "addProject",
      "outputs": [],
      "payable": false,
      "stateMutability": "nonpayable",
      "type": "function"
    },
    {
      "constant": false,
      "inputs": [
        {
          "name": "index",
          "type": "uint256"
        }
      ],
      "name": "depositByIndex",
      "outputs": [],
      "payable": true,
      "stateMutability": "payable",
      "type": "function"
    },
    {
      "constant": false,
      "inputs": [
        {
          "name": "record",
          "type": "uint256"
        },
        {
          "name": "index",
          "type": "uint256"
        }
      ],
      "name": "recordByIndex",
      "outputs": [],
      "payable": false,
      "stateMutability": "nonpayable",
      "type": "function"
    },
    {
      "constant": false,
      "inputs": [
        {
          "name": "projectOwner",
          "type": "address"
        },
        {
          "name": "index",
          "type": "uint256"
        }
      ],
      "name": "completeByIndex",
      "outputs": [],
      "payable": false,
      "stateMutability": "nonpayable",
      "type": "function"
    },
    {
      "constant": false,
      "inputs": [
        {
          "name": "index",
          "type": "uint256"
        }
      ],
      "name": "withdrawByIndex",
      "outputs": [],
      "payable": true,
      "stateMutability": "payable",
      "type": "function"
    },
    {
      "constant": true,
      "inputs": [
        {
          "name": "index",
          "type": "uint256"
        }
      ],
      "name": "depositOfProjectByIndex",
      "outputs": [
        {
          "name": "",
          "type": "uint256"
        }
      ],
      "payable": false,
      "stateMutability": "view",
      "type": "function"
    },
    {
      "constant": true,
      "inputs": [],
      "name": "getProjects",
      "outputs": [
        {
          "name": "",
          "type": "uint256[]"
        },
        {
          "name": "",
          "type": "address[]"
        }
      ],
      "payable": false,
      "stateMutability": "view",
      "type": "function"
    }
  ],
  "bytecode": "0x608060405234801561001057600080fd5b5060405161001d9061007e565b604051809103906000f080158015610039573d6000803e3d6000fd5b506000806101000a81548173ffffffffffffffffffffffffffffffffffffffff021916908373ffffffffffffffffffffffffffffffffffffffff16021790555061008b565b610d5c806113f583390190565b61135b8061009a6000396000f3fe6080604052600436106100705760003560e01c80637c56b7981161004e5780637c56b798146101375780638335a10d14610188578063dcc60128146101e3578063e206e9421461029757610070565b80634ccfdeb014610075578063580cd46f146100c45780636607c8ea146100f2575b600080fd5b34801561008157600080fd5b506100ae6004803603602081101561009857600080fd5b81019080803590602001909291905050506102c5565b6040518082815260200191505060405180910390f35b6100f0600480360360208110156100da57600080fd5b8101908080359060200190929190505050610326565b005b3480156100fe57600080fd5b506101356004803603604081101561011557600080fd5b81019080803590602001909291908035906020019092919050505061050d565b005b34801561014357600080fd5b506101866004803603602081101561015a57600080fd5b81019080803573ffffffffffffffffffffffffffffffffffffffff1690602001909291905050506106e2565b005b34801561019457600080fd5b506101e1600480360360408110156101ab57600080fd5b81019080803573ffffffffffffffffffffffffffffffffffffffff169060200190929190803590602001909291905050506109c0565b005b3480156101ef57600080fd5b506101f8610bb3565b604051808060200180602001838103835285818151815260200191508051906020019060200280838360005b8381101561023f578082015181840152602081019050610224565b50505050905001838103825284818151815260200191508051906020019060200280838360005b83811015610281578082015181840152602081019050610266565b5050505090500194505050505060405180910390f35b6102c3600480360360208110156102ad57600080fd5b8101908080359060200190929190505050610f78565b005b6000600160003373ffffffffffffffffffffffffffffffffffffffff1673ffffffffffffffffffffffffffffffffffffffff168152602001908152602001600020600401828154811061031457fe5b90600052602060002001549050919050565b80600160003373ffffffffffffffffffffffffffffffffffffffff1673ffffffffffffffffffffffffffffffffffffffff168152602001908152602001600020600601818154811061037457fe5b90600052602060002090602091828204019190069054906101000a900460ff161561039e57600080fd5b34600160003373ffffffffffffffffffffffffffffffffffffffff1673ffffffffffffffffffffffffffffffffffffffff16815260200190815260200160002060040183815481106103ec57fe5b90600052602060002001600082825401925050819055506000809054906101000a900473ffffffffffffffffffffffffffffffffffffffff1673ffffffffffffffffffffffffffffffffffffffff1663f340fa01336040518263ffffffff1660e01b8152600401808273ffffffffffffffffffffffffffffffffffffffff1673ffffffffffffffffffffffffffffffffffffffff168152602001915050600060405180830381600087803b1580156104a357600080fd5b505af11580156104b7573d6000803e3d6000fd5b505050503373ffffffffffffffffffffffffffffffffffffffff167f2da466a7b24304f47e87fa2e1e5a81b9831ce54fec19055ce277ca2f39ba42c4346040518082815260200191505060405180910390a25050565b80600160003373ffffffffffffffffffffffffffffffffffffffff1673ffffffffffffffffffffffffffffffffffffffff168152602001908152602001600020600601818154811061055b57fe5b90600052602060002090602091828204019190069054906101000a900460ff161561058557600080fd5b600160003373ffffffffffffffffffffffffffffffffffffffff1673ffffffffffffffffffffffffffffffffffffffff16815260200190815260200160002060020182815481106105d257fe5b90600052602060002001839080600181540180825580915050906001820390600052602060002001600090919290919091505550600160003373ffffffffffffffffffffffffffffffffffffffff1673ffffffffffffffffffffffffffffffffffffffff168152602001908152602001600020600301828154811061065357fe5b906000526020600020014290806001815401808255809150509060018203906000526020600020016000909192909190915055503373ffffffffffffffffffffffffffffffffffffffff167f4a4e83199e0c51e5945d1d5e13d633e81bfea965c768f4f52f9d808c602a190c8385604051808381526020018281526020019250505060405180910390a2505050565b600160003373ffffffffffffffffffffffffffffffffffffffff1673ffffffffffffffffffffffffffffffffffffffff16815260200190815260200160002060000160008154809291906001019190505550600160003373ffffffffffffffffffffffffffffffffffffffff1673ffffffffffffffffffffffffffffffffffffffff1681526020019081526020016000206001018190806001815401808255809150509060018203906000526020600020016000909192909190916101000a81548173ffffffffffffffffffffffffffffffffffffffff021916908373ffffffffffffffffffffffffffffffffffffffff16021790555050600160003373ffffffffffffffffffffffffffffffffffffffff1673ffffffffffffffffffffffffffffffffffffffff16815260200190815260200160002060040160009080600181540180825580915050906001820390600052602060002001600090919290919091505550600160003373ffffffffffffffffffffffffffffffffffffffff1673ffffffffffffffffffffffffffffffffffffffff1681526020019081526020016000206005016000908060018154018082558091505090600182039060005260206000209060209182820401919006909192909190916101000a81548160ff02191690831515021790555050600160003373ffffffffffffffffffffffffffffffffffffffff1673ffffffffffffffffffffffffffffffffffffffff1681526020019081526020016000206006016000908060018154018082558091505090600182039060005260206000209060209182820401919006909192909190916101000a81548160ff021916908315150217905550508073ffffffffffffffffffffffffffffffffffffffff163373ffffffffffffffffffffffffffffffffffffffff167ff17b4f21440a6f239d32828bca2b10d1d7cbfa635a2069e075dc37ccdb94518a60006040518082815260200191505060405180910390a350565b81813373ffffffffffffffffffffffffffffffffffffffff16600160008473ffffffffffffffffffffffffffffffffffffffff1673ffffffffffffffffffffffffffffffffffffffff1681526020019081526020016000206001018281548110610a2657fe5b9060005260206000200160009054906101000a900473ffffffffffffffffffffffffffffffffffffffff1673ffffffffffffffffffffffffffffffffffffffff1614610a7157600080fd5b600160008373ffffffffffffffffffffffffffffffffffffffff1673ffffffffffffffffffffffffffffffffffffffff1681526020019081526020016000206005018181548110610abe57fe5b90600052602060002090602091828204019190069054906101000a900460ff1615610ae857600080fd5b60018060008673ffffffffffffffffffffffffffffffffffffffff1673ffffffffffffffffffffffffffffffffffffffff1681526020019081526020016000206005018481548110610b3657fe5b90600052602060002090602091828204019190066101000a81548160ff0219169083151502179055508373ffffffffffffffffffffffffffffffffffffffff167fde2dead40a8c097b51964aec2a068ffa7dc41c6a98ff2c2b4a6e72957c32ac76846040518082815260200191505060405180910390a250505050565b60608060606003600160003373ffffffffffffffffffffffffffffffffffffffff1673ffffffffffffffffffffffffffffffffffffffff1681526020019081526020016000206000015402604051908082528060200260200182016040528015610c2c5781602001602082028038833980820191505090505b5090506060600160003373ffffffffffffffffffffffffffffffffffffffff1673ffffffffffffffffffffffffffffffffffffffff16815260200190815260200160002060000154604051908082528060200260200182016040528015610ca25781602001602082028038833980820191505090505b50905060008090505b600160003373ffffffffffffffffffffffffffffffffffffffff1673ffffffffffffffffffffffffffffffffffffffff16815260200190815260200160002060000154811015610f6b57600160003373ffffffffffffffffffffffffffffffffffffffff1673ffffffffffffffffffffffffffffffffffffffff1681526020019081526020016000206004018181548110610d4257fe5b9060005260206000200154836003830281518110610d5c57fe5b602002602001018181525050600160003373ffffffffffffffffffffffffffffffffffffffff1673ffffffffffffffffffffffffffffffffffffffff1681526020019081526020016000206005018181548110610db557fe5b90600052602060002090602091828204019190069054906101000a900460ff16610de0576000610de3565b60015b60ff16836001600384020181518110610df857fe5b602002602001018181525050600160003373ffffffffffffffffffffffffffffffffffffffff1673ffffffffffffffffffffffffffffffffffffffff1681526020019081526020016000206006018181548110610e5157fe5b90600052602060002090602091828204019190069054906101000a900460ff16610e7c576000610e7f565b60015b60ff16836002600384020181518110610e9457fe5b602002602001018181525050600160003373ffffffffffffffffffffffffffffffffffffffff1673ffffffffffffffffffffffffffffffffffffffff1681526020019081526020016000206001018181548110610eed57fe5b9060005260206000200160009054906101000a900473ffffffffffffffffffffffffffffffffffffffff16828281518110610f2457fe5b602002602001019073ffffffffffffffffffffffffffffffffffffffff16908173ffffffffffffffffffffffffffffffffffffffff16815250508080600101915050610cab565b5081819350935050509091565b80600160003373ffffffffffffffffffffffffffffffffffffffff1673ffffffffffffffffffffffffffffffffffffffff1681526020019081526020016000206006018181548110610fc657fe5b90600052602060002090602091828204019190069054906101000a900460ff1615610ff057600080fd5b600160003373ffffffffffffffffffffffffffffffffffffffff1673ffffffffffffffffffffffffffffffffffffffff168152602001908152602001600020600501818154811061103d57fe5b90600052602060002090602091828204019190069054906101000a900460ff1661106657600080fd5b6000600160003373ffffffffffffffffffffffffffffffffffffffff1673ffffffffffffffffffffffffffffffffffffffff16815260200190815260200160002060040183815481106110b557fe5b906000526020600020015490506000600160003373ffffffffffffffffffffffffffffffffffffffff1673ffffffffffffffffffffffffffffffffffffffff168152602001908152602001600020600401848154811061111157fe5b906000526020600020018190555060018060003373ffffffffffffffffffffffffffffffffffffffff1673ffffffffffffffffffffffffffffffffffffffff168152602001908152602001600020600601848154811061116d57fe5b90600052602060002090602091828204019190066101000a81548160ff0219169083151502179055506000809054906101000a900473ffffffffffffffffffffffffffffffffffffffff1673ffffffffffffffffffffffffffffffffffffffff166351cff8d9336040518263ffffffff1660e01b8152600401808273ffffffffffffffffffffffffffffffffffffffff1673ffffffffffffffffffffffffffffffffffffffff168152602001915050600060405180830381600087803b15801561123657600080fd5b505af115801561124a573d6000803e3d6000fd5b50505050600160003373ffffffffffffffffffffffffffffffffffffffff1673ffffffffffffffffffffffffffffffffffffffff168152602001908152602001600020600101838154811061129b57fe5b9060005260206000200160009054906101000a900473ffffffffffffffffffffffffffffffffffffffff1673ffffffffffffffffffffffffffffffffffffffff163373ffffffffffffffffffffffffffffffffffffffff167fd1c19fbcd4551a5edfb66d43d2e337c04837afda3482b42bdf569a8fccdae5fb836040518082815260200191505060405180910390a350505056fea165627a7a72305820136558c29d232dccd50af48735107f479b790999302176cb577266dd7d8ba1b2002960806040526100126100da60201b60201c565b6000806101000a81548173ffffffffffffffffffffffffffffffffffffffff021916908373ffffffffffffffffffffffffffffffffffffffff1602179055507f4101e71e974f68df5e9730cc223280b41654676bbb052cdcc735c3337e64d2d96000809054906101000a900473ffffffffffffffffffffffffffffffffffffffff16604051808273ffffffffffffffffffffffffffffffffffffffff1673ffffffffffffffffffffffffffffffffffffffff16815260200191505060405180910390a16100e2565b600033905090565b610c6b806100f16000396000f3fe6080604052600436106100555760003560e01c80632348238c1461005a57806351cff8d9146100ab5780636809691a146100fc578063c6dbdf611461014d578063e3a9db1a146101a4578063f340fa0114610209575b600080fd5b34801561006657600080fd5b506100a96004803603602081101561007d57600080fd5b81019080803573ffffffffffffffffffffffffffffffffffffffff16906020019092919050505061024d565b005b3480156100b757600080fd5b506100fa600480360360208110156100ce57600080fd5b81019080803573ffffffffffffffffffffffffffffffffffffffff169060200190929190505050610446565b005b34801561010857600080fd5b5061014b6004803603602081101561011f57600080fd5b81019080803573ffffffffffffffffffffffffffffffffffffffff169060200190929190505050610614565b005b34801561015957600080fd5b506101626107c4565b604051808273ffffffffffffffffffffffffffffffffffffffff1673ffffffffffffffffffffffffffffffffffffffff16815260200191505060405180910390f35b3480156101b057600080fd5b506101f3600480360360208110156101c757600080fd5b81019080803573ffffffffffffffffffffffffffffffffffffffff1690602001909291905050506107ed565b6040518082815260200191505060405180910390f35b61024b6004803603602081101561021f57600080fd5b81019080803573ffffffffffffffffffffffffffffffffffffffff169060200190929190505050610836565b005b6000809054906101000a900473ffffffffffffffffffffffffffffffffffffffff1673ffffffffffffffffffffffffffffffffffffffff1661028d6109ce565b73ffffffffffffffffffffffffffffffffffffffff16146102f9576040517f08c379a000000000000000000000000000000000000000000000000000000000815260040180806020018281038252602c815260200180610c14602c913960400191505060405180910390fd5b600073ffffffffffffffffffffffffffffffffffffffff168173ffffffffffffffffffffffffffffffffffffffff16141561037f576040517f08c379a000000000000000000000000000000000000000000000000000000000815260040180806020018281038252602a815260200180610bea602a913960400191505060405180910390fd5b806000806101000a81548173ffffffffffffffffffffffffffffffffffffffff021916908373ffffffffffffffffffffffffffffffffffffffff1602179055507f4101e71e974f68df5e9730cc223280b41654676bbb052cdcc735c3337e64d2d96000809054906101000a900473ffffffffffffffffffffffffffffffffffffffff16604051808273ffffffffffffffffffffffffffffffffffffffff1673ffffffffffffffffffffffffffffffffffffffff16815260200191505060405180910390a150565b6000809054906101000a900473ffffffffffffffffffffffffffffffffffffffff1673ffffffffffffffffffffffffffffffffffffffff166104866109ce565b73ffffffffffffffffffffffffffffffffffffffff16146104f2576040517f08c379a000000000000000000000000000000000000000000000000000000000815260040180806020018281038252602c815260200180610c14602c913960400191505060405180910390fd5b6000600160008373ffffffffffffffffffffffffffffffffffffffff1673ffffffffffffffffffffffffffffffffffffffff1681526020019081526020016000205490506000600160008473ffffffffffffffffffffffffffffffffffffffff1673ffffffffffffffffffffffffffffffffffffffff168152602001908152602001600020819055508173ffffffffffffffffffffffffffffffffffffffff166108fc829081150290604051600060405180830381858888f193505050501580156105c1573d6000803e3d6000fd5b508173ffffffffffffffffffffffffffffffffffffffff167f7084f5476618d8e60b11ef0d7d3f06914655adb8793e28ff7f018d4c76d505d5826040518082815260200191505060405180910390a25050565b6000809054906101000a900473ffffffffffffffffffffffffffffffffffffffff1673ffffffffffffffffffffffffffffffffffffffff166106546109ce565b73ffffffffffffffffffffffffffffffffffffffff16146106c0576040517f08c379a000000000000000000000000000000000000000000000000000000000815260040180806020018281038252602c815260200180610c14602c913960400191505060405180910390fd5b6000600160008373ffffffffffffffffffffffffffffffffffffffff1673ffffffffffffffffffffffffffffffffffffffff1681526020019081526020016000205490506000600160008473ffffffffffffffffffffffffffffffffffffffff1673ffffffffffffffffffffffffffffffffffffffff16815260200190815260200160002081905550610772818373ffffffffffffffffffffffffffffffffffffffff166109d690919063ffffffff16565b8173ffffffffffffffffffffffffffffffffffffffff167f7084f5476618d8e60b11ef0d7d3f06914655adb8793e28ff7f018d4c76d505d5826040518082815260200191505060405180910390a25050565b60008060009054906101000a900473ffffffffffffffffffffffffffffffffffffffff16905090565b6000600160008373ffffffffffffffffffffffffffffffffffffffff1673ffffffffffffffffffffffffffffffffffffffff168152602001908152602001600020549050919050565b6000809054906101000a900473ffffffffffffffffffffffffffffffffffffffff1673ffffffffffffffffffffffffffffffffffffffff166108766109ce565b73ffffffffffffffffffffffffffffffffffffffff16146108e2576040517f08c379a000000000000000000000000000000000000000000000000000000000815260040180806020018281038252602c815260200180610c14602c913960400191505060405180910390fd5b600034905061093981600160008573ffffffffffffffffffffffffffffffffffffffff1673ffffffffffffffffffffffffffffffffffffffff16815260200190815260200160002054610b2790919063ffffffff16565b600160008473ffffffffffffffffffffffffffffffffffffffff1673ffffffffffffffffffffffffffffffffffffffff168152602001908152602001600020819055508173ffffffffffffffffffffffffffffffffffffffff167f2da466a7b24304f47e87fa2e1e5a81b9831ce54fec19055ce277ca2f39ba42c4826040518082815260200191505060405180910390a25050565b600033905090565b803073ffffffffffffffffffffffffffffffffffffffff16311015610a63576040517f08c379a000000000000000000000000000000000000000000000000000000000815260040180806020018281038252601d8152602001807f416464726573733a20696e73756666696369656e742062616c616e636500000081525060200191505060405180910390fd5b60008273ffffffffffffffffffffffffffffffffffffffff168260405180600001905060006040518083038185875af1925050503d8060008114610ac3576040519150601f19603f3d011682016040523d82523d6000602084013e610ac8565b606091505b5050905080610b22576040517f08c379a000000000000000000000000000000000000000000000000000000000815260040180806020018281038252603a815260200180610bb0603a913960400191505060405180910390fd5b505050565b600080828401905083811015610ba5576040517f08c379a000000000000000000000000000000000000000000000000000000000815260040180806020018281038252601b8152602001807f536166654d6174683a206164646974696f6e206f766572666c6f77000000000081525060200191505060405180910390fd5b809150509291505056fe416464726573733a20756e61626c6520746f2073656e642076616c75652c20726563697069656e74206d617920686176652072657665727465645365636f6e646172793a206e6577207072696d61727920697320746865207a65726f20616464726573735365636f6e646172793a2063616c6c6572206973206e6f7420746865207072696d617279206163636f756e74a165627a7a723058201c3f483b1c9d81cd17e5f0041ea3f53eb6560606e7e50006d62175880c76a8f40029",
  "source": "pragma solidity ^0.5.2;\n\nimport '@openzeppelin/contracts/payment/escrow/Escrow.sol';\n\ncontract Commitment {\n    Escrow private _escrow;\n    \n    event Commitment(address indexed Address, address indexed TrainerAddress, uint256 Deposit);\n    event Deposited(address indexed projectOwner, uint256 weiAmount);\n    event Recorded(address indexed projectOwner, uint index, uint256 record);\n    event Completed(address indexed projectOwner, uint index);\n    event Withdrawn(address indexed projectOwner, address indexed trainer, uint256 weiAmount);\n\n    struct Project {\n        uint count;\n        address[] trainers;\n        uint256[][] records;\n        uint256[][] recordedTimes;\n        uint256[] currentAmounts;\n        bool[] completions;\n        bool[] hasBeenWithdrawn;\n    }\n\n    mapping(address => Project) private _projects;\n\n    constructor () public {\n        _escrow = new Escrow();\n    }\n\n    modifier onlyDepositable (uint index) {\n        require(!_projects[msg.sender].hasBeenWithdrawn[index]);\n\n        _;\n    }\n\n    modifier onlyWithdrawable (uint index) {\n        require(!_projects[msg.sender].hasBeenWithdrawn[index]);\n\n        require(_projects[msg.sender].completions[index]);\n\n        _;\n    }\n\n    modifier onlyTrainerOfProject (address projectOwner, uint index) {\n        require(_projects[projectOwner].trainers[index] == msg.sender);\n\n        require(!_projects[projectOwner].completions[index]);\n\n        _;\n    }\n\n    function addProject(address trainer) public {\n        _projects[msg.sender].count++;\n        _projects[msg.sender].trainers.push(trainer);\n        _projects[msg.sender].currentAmounts.push(0);\n        _projects[msg.sender].completions.push(false);\n        _projects[msg.sender].hasBeenWithdrawn.push(false);\n        \n        emit Commitment(msg.sender, trainer, 0);\n    }\n\n    function depositByIndex(uint index) public payable onlyDepositable(index) {\n        _projects[msg.sender].currentAmounts[index] += msg.value;\n\n        _escrow.deposit(msg.sender);\n\n        emit Deposited(msg.sender, msg.value);\n    }\n\n    function recordByIndex(uint256 record, uint index) public onlyDepositable(index) {\n        _projects[msg.sender].records[index].push(record);\n        _projects[msg.sender].recordedTimes[index].push(block.timestamp);\n\n        emit Recorded(msg.sender, index, record);\n    }\n\n    function completeByIndex(address projectOwner, uint index) public onlyTrainerOfProject(projectOwner, index) {\n        _projects[projectOwner].completions[index] = true;\n\n        emit Completed(projectOwner, index);\n    }\n\n    function withdrawByIndex(uint index) public payable onlyWithdrawable(index) {\n        uint256 withdrawnAmount = _projects[msg.sender].currentAmounts[index];\n\n        _projects[msg.sender].currentAmounts[index] = 0;\n        _projects[msg.sender].hasBeenWithdrawn[index] = true;\n\n        _escrow.withdraw(msg.sender);\n\n        emit Withdrawn(msg.sender, _projects[msg.sender].trainers[index], withdrawnAmount);\n    }\n\n    function depositOfProjectByIndex(uint index) public view returns(uint256) {\n        return _projects[msg.sender].currentAmounts[index];\n    }\n\n    function getProjects() public view returns(uint256[] memory, address[] memory) {\n        uint256[] memory projectsFlatten = new uint256[] (_projects[msg.sender].count * 3);\n        address[] memory projectsTrainerFlatten = new address[] (_projects[msg.sender].count);\n\n        for (uint index = 0; index < _projects[msg.sender].count; index++) {\n            projectsFlatten[index * 3]     = _projects[msg.sender].currentAmounts[index];\n            projectsFlatten[index * 3 + 1] = _projects[msg.sender].completions[index] ? 1 : 0;\n            projectsFlatten[index * 3 + 2] = _projects[msg.sender].hasBeenWithdrawn[index] ? 1 : 0;\n            projectsTrainerFlatten[index] = _projects[msg.sender].trainers[index];\n        }\n\n        return (projectsFlatten, projectsTrainerFlatten);\n    }\n}\n",
  "sourcePath": "/Users/katagiri/Workspace/LayerX/yugawara-work/truffle/contracts/Commitment.sol",
  "compiler": {
    "name": "solc",
    "version": "0.5.8+commit.23d335f2.Emscripten.clang"
  },
  "schemaVersion": "3.0.11",
  "updatedAt": "2019-11-09T14:38:01.288Z",
  "devdoc": {
    "methods": {}
  },
  "userdoc": {
    "methods": {}
  }
}